{
  "_format": "hh-sol-artifact-1",
  "contractName": "Contract",
  "sourceName": "contracts/Contract.sol",
  "abi": [
    {
      "inputs": [
        {
          "internalType": "string",
          "name": "_name",
          "type": "string"
        },
        {
          "internalType": "string",
          "name": "_symbol",
          "type": "string"
        },
        {
          "internalType": "string",
          "name": "_base_uri",
          "type": "string"
        }
      ],
      "stateMutability": "nonpayable",
      "type": "constructor"
    },
    {
      "anonymous": false,
      "inputs": [
        {
          "indexed": true,
          "internalType": "address",
          "name": "owner",
          "type": "address"
        },
        {
          "indexed": true,
          "internalType": "address",
          "name": "spender",
          "type": "address"
        },
        {
          "indexed": true,
          "internalType": "uint256",
          "name": "id",
          "type": "uint256"
        }
      ],
      "name": "Approval",
      "type": "event"
    },
    {
      "anonymous": false,
      "inputs": [
        {
          "indexed": true,
          "internalType": "address",
          "name": "owner",
          "type": "address"
        },
        {
          "indexed": true,
          "internalType": "address",
          "name": "operator",
          "type": "address"
        },
        {
          "indexed": false,
          "internalType": "bool",
          "name": "approved",
          "type": "bool"
        }
      ],
      "name": "ApprovalForAll",
      "type": "event"
    },
    {
      "anonymous": false,
      "inputs": [
        {
          "indexed": true,
          "internalType": "address",
          "name": "previousOwner",
          "type": "address"
        },
        {
          "indexed": true,
          "internalType": "address",
          "name": "newOwner",
          "type": "address"
        }
      ],
      "name": "OwnershipTransferred",
      "type": "event"
    },
    {
      "anonymous": false,
      "inputs": [
        {
          "indexed": true,
          "internalType": "address",
          "name": "from",
          "type": "address"
        },
        {
          "indexed": true,
          "internalType": "address",
          "name": "to",
          "type": "address"
        },
        {
          "indexed": true,
          "internalType": "uint256",
          "name": "id",
          "type": "uint256"
        }
      ],
      "name": "Transfer",
      "type": "event"
    },
    {
      "inputs": [],
      "name": "MAX_SUPPLY",
      "outputs": [
        {
          "internalType": "uint256",
          "name": "",
          "type": "uint256"
        }
      ],
      "stateMutability": "view",
      "type": "function"
    },
    {
      "inputs": [],
      "name": "MINT_PRICE",
      "outputs": [
        {
          "internalType": "uint256",
          "name": "",
          "type": "uint256"
        }
      ],
      "stateMutability": "view",
      "type": "function"
    },
    {
      "inputs": [
        {
          "internalType": "address",
          "name": "spender",
          "type": "address"
        },
        {
          "internalType": "uint256",
          "name": "id",
          "type": "uint256"
        }
      ],
      "name": "approve",
      "outputs": [],
      "stateMutability": "nonpayable",
      "type": "function"
    },
    {
      "inputs": [
        {
          "internalType": "address",
          "name": "",
          "type": "address"
        }
      ],
      "name": "balanceOf",
      "outputs": [
        {
          "internalType": "uint256",
          "name": "",
          "type": "uint256"
        }
      ],
      "stateMutability": "view",
      "type": "function"
    },
    {
      "inputs": [],
      "name": "base_uri",
      "outputs": [
        {
          "internalType": "string",
          "name": "",
          "type": "string"
        }
      ],
      "stateMutability": "view",
      "type": "function"
    },
    {
      "inputs": [],
      "name": "currentTokenId",
      "outputs": [
        {
          "internalType": "uint256",
          "name": "",
          "type": "uint256"
        }
      ],
      "stateMutability": "view",
      "type": "function"
    },
    {
      "inputs": [
        {
          "internalType": "uint256",
          "name": "",
          "type": "uint256"
        }
      ],
      "name": "getApproved",
      "outputs": [
        {
          "internalType": "address",
          "name": "",
          "type": "address"
        }
      ],
      "stateMutability": "view",
      "type": "function"
    },
    {
      "inputs": [
        {
          "internalType": "address",
          "name": "",
          "type": "address"
        },
        {
          "internalType": "address",
          "name": "",
          "type": "address"
        }
      ],
      "name": "isApprovedForAll",
      "outputs": [
        {
          "internalType": "bool",
          "name": "",
          "type": "bool"
        }
      ],
      "stateMutability": "view",
      "type": "function"
    },
    {
      "inputs": [
        {
          "internalType": "address",
          "name": "recipient",
          "type": "address"
        }
      ],
      "name": "mintTo",
      "outputs": [
        {
          "internalType": "uint256",
          "name": "",
          "type": "uint256"
        }
      ],
      "stateMutability": "payable",
      "type": "function"
    },
    {
      "inputs": [],
      "name": "name",
      "outputs": [
        {
          "internalType": "string",
          "name": "",
          "type": "string"
        }
      ],
      "stateMutability": "view",
      "type": "function"
    },
    {
      "inputs": [],
      "name": "owner",
      "outputs": [
        {
          "internalType": "address",
          "name": "",
          "type": "address"
        }
      ],
      "stateMutability": "view",
      "type": "function"
    },
    {
      "inputs": [
        {
          "internalType": "uint256",
          "name": "",
          "type": "uint256"
        }
      ],
      "name": "ownerOf",
      "outputs": [
        {
          "internalType": "address",
          "name": "",
          "type": "address"
        }
      ],
      "stateMutability": "view",
      "type": "function"
    },
    {
      "inputs": [],
      "name": "renounceOwnership",
      "outputs": [],
      "stateMutability": "nonpayable",
      "type": "function"
    },
    {
      "inputs": [
        {
          "internalType": "address",
          "name": "from",
          "type": "address"
        },
        {
          "internalType": "address",
          "name": "to",
          "type": "address"
        },
        {
          "internalType": "uint256",
          "name": "id",
          "type": "uint256"
        }
      ],
      "name": "safeTransferFrom",
      "outputs": [],
      "stateMutability": "nonpayable",
      "type": "function"
    },
    {
      "inputs": [
        {
          "internalType": "address",
          "name": "from",
          "type": "address"
        },
        {
          "internalType": "address",
          "name": "to",
          "type": "address"
        },
        {
          "internalType": "uint256",
          "name": "id",
          "type": "uint256"
        },
        {
          "internalType": "bytes",
          "name": "data",
          "type": "bytes"
        }
      ],
      "name": "safeTransferFrom",
      "outputs": [],
      "stateMutability": "nonpayable",
      "type": "function"
    },
    {
      "inputs": [
        {
          "internalType": "address",
          "name": "operator",
          "type": "address"
        },
        {
          "internalType": "bool",
          "name": "approved",
          "type": "bool"
        }
      ],
      "name": "setApprovalForAll",
      "outputs": [],
      "stateMutability": "nonpayable",
      "type": "function"
    },
    {
      "inputs": [
        {
          "internalType": "bytes4",
          "name": "interfaceId",
          "type": "bytes4"
        }
      ],
      "name": "supportsInterface",
      "outputs": [
        {
          "internalType": "bool",
          "name": "",
          "type": "bool"
        }
      ],
      "stateMutability": "pure",
      "type": "function"
    },
    {
      "inputs": [],
      "name": "symbol",
      "outputs": [
        {
          "internalType": "string",
          "name": "",
          "type": "string"
        }
      ],
      "stateMutability": "view",
      "type": "function"
    },
    {
      "inputs": [
        {
          "internalType": "uint256",
          "name": "tokenId",
          "type": "uint256"
        }
      ],
      "name": "tokenURI",
      "outputs": [
        {
          "internalType": "string",
          "name": "",
          "type": "string"
        }
      ],
      "stateMutability": "view",
      "type": "function"
    },
    {
      "inputs": [
        {
          "internalType": "address",
          "name": "from",
          "type": "address"
        },
        {
          "internalType": "address",
          "name": "to",
          "type": "address"
        },
        {
          "internalType": "uint256",
          "name": "id",
          "type": "uint256"
        }
      ],
      "name": "transferFrom",
      "outputs": [],
      "stateMutability": "nonpayable",
      "type": "function"
    },
    {
      "inputs": [
        {
          "internalType": "address",
          "name": "newOwner",
          "type": "address"
        }
      ],
      "name": "transferOwnership",
      "outputs": [],
      "stateMutability": "nonpayable",
      "type": "function"
    },
    {
      "inputs": [
        {
          "internalType": "address payable",
          "name": "recipient",
          "type": "address"
        }
      ],
      "name": "withdrawBalance",
      "outputs": [],
      "stateMutability": "nonpayable",
      "type": "function"
    }
  ],
  "bytecode": "0x60806040523480156200001157600080fd5b50604051620030cc380380620030cc8339818101604052810190620000379190620003ca565b82828160009080519060200190620000519291906200017d565b5080600190805190602001906200006a9291906200017d565b5050506200008d62000081620000af60201b60201c565b620000b760201b60201c565b8060089080519060200190620000a59291906200017d565b50505050620004e8565b600033905090565b6000600660009054906101000a900473ffffffffffffffffffffffffffffffffffffffff16905081600660006101000a81548173ffffffffffffffffffffffffffffffffffffffff021916908373ffffffffffffffffffffffffffffffffffffffff1602179055508173ffffffffffffffffffffffffffffffffffffffff168173ffffffffffffffffffffffffffffffffffffffff167f8be0079c531659141344cd1fd0a4f28419497f9722a3daafe3b4186f6b6457e060405160405180910390a35050565b8280546200018b90620004b2565b90600052602060002090601f016020900481019282620001af5760008555620001fb565b82601f10620001ca57805160ff1916838001178555620001fb565b82800160010185558215620001fb579182015b82811115620001fa578251825591602001919060010190620001dd565b5b5090506200020a91906200020e565b5090565b5b80821115620002295760008160009055506001016200020f565b5090565b6000604051905090565b600080fd5b600080fd5b600080fd5b600080fd5b6000601f19601f8301169050919050565b7f4e487b7100000000000000000000000000000000000000000000000000000000600052604160045260246000fd5b62000296826200024b565b810181811067ffffffffffffffff82111715620002b857620002b76200025c565b5b80604052505050565b6000620002cd6200022d565b9050620002db82826200028b565b919050565b600067ffffffffffffffff821115620002fe57620002fd6200025c565b5b62000309826200024b565b9050602081019050919050565b60005b838110156200033657808201518184015260208101905062000319565b8381111562000346576000848401525b50505050565b6000620003636200035d84620002e0565b620002c1565b90508281526020810184848401111562000382576200038162000246565b5b6200038f84828562000316565b509392505050565b600082601f830112620003af57620003ae62000241565b5b8151620003c18482602086016200034c565b91505092915050565b600080600060608486031215620003e657620003e562000237565b5b600084015167ffffffffffffffff8111156200040757620004066200023c565b5b620004158682870162000397565b935050602084015167ffffffffffffffff8111156200043957620004386200023c565b5b620004478682870162000397565b925050604084015167ffffffffffffffff8111156200046b576200046a6200023c565b5b620004798682870162000397565b9150509250925092565b7f4e487b7100000000000000000000000000000000000000000000000000000000600052602260045260246000fd5b60006002820490506001821680620004cb57607f821691505b60208210811415620004e257620004e162000483565b5b50919050565b612bd480620004f86000396000f3fe6080604052600436106101345760003560e01c8063755edd17116100ab578063a22cb4651161006f578063a22cb4651461041a578063b88d4fde14610443578063c002d23d1461046c578063c87b56dd14610497578063e985e9c5146104d4578063f2fde38b1461051157610134565b8063755edd1714610340578063756af45f14610370578063786f2910146103995780638da5cb5b146103c457806395d89b41146103ef57610134565b806323b872dd116100fd57806323b872dd1461023257806332cb6b0c1461025b57806342842e0e146102865780636352211e146102af57806370a08231146102ec578063715018a61461032957610134565b80629a9b7b1461013957806301ffc9a71461016457806306fdde03146101a1578063081812fc146101cc578063095ea7b314610209575b600080fd5b34801561014557600080fd5b5061014e61053a565b60405161015b9190611c12565b60405180910390f35b34801561017057600080fd5b5061018b60048036038101906101869190611c99565b610540565b6040516101989190611ce1565b60405180910390f35b3480156101ad57600080fd5b506101b66105d2565b6040516101c39190611d95565b60405180910390f35b3480156101d857600080fd5b506101f360048036038101906101ee9190611de3565b610660565b6040516102009190611e51565b60405180910390f35b34801561021557600080fd5b50610230600480360381019061022b9190611e98565b610693565b005b34801561023e57600080fd5b5061025960048036038101906102549190611ed8565b61087c565b005b34801561026757600080fd5b50610270610c7c565b60405161027d9190611c12565b60405180910390f35b34801561029257600080fd5b506102ad60048036038101906102a89190611ed8565b610c81565b005b3480156102bb57600080fd5b506102d660048036038101906102d19190611de3565b610db9565b6040516102e39190611e51565b60405180910390f35b3480156102f857600080fd5b50610313600480360381019061030e9190611f2b565b610dec565b6040516103209190611c12565b60405180910390f35b34801561033557600080fd5b5061033e610e04565b005b61035a60048036038101906103559190611f2b565b610e8c565b6040516103679190611c12565b60405180910390f35b34801561037c57600080fd5b5061039760048036038101906103929190611f96565b610f9a565b005b3480156103a557600080fd5b506103ae6110cc565b6040516103bb9190611d95565b60405180910390f35b3480156103d057600080fd5b506103d961115a565b6040516103e69190611e51565b60405180910390f35b3480156103fb57600080fd5b50610404611184565b6040516104119190611d95565b60405180910390f35b34801561042657600080fd5b50610441600480360381019061043c9190611fef565b611212565b005b34801561044f57600080fd5b5061046a60048036038101906104659190612164565b61130f565b005b34801561047857600080fd5b5061048161144a565b60405161048e9190611c12565b60405180910390f35b3480156104a357600080fd5b506104be60048036038101906104b99190611de3565b611456565b6040516104cb9190611d95565b60405180910390f35b3480156104e057600080fd5b506104fb60048036038101906104f691906121e7565b611559565b6040516105089190611ce1565b60405180910390f35b34801561051d57600080fd5b5061053860048036038101906105339190611f2b565b611588565b005b60075481565b60006301ffc9a760e01b827bffffffffffffffffffffffffffffffffffffffffffffffffffffffff1916148061059b57506380ac58cd60e01b827bffffffffffffffffffffffffffffffffffffffffffffffffffffffff1916145b806105cb5750635b5e139f60e01b827bffffffffffffffffffffffffffffffffffffffffffffffffffffffff1916145b9050919050565b600080546105df90612256565b80601f016020809104026020016040519081016040528092919081815260200182805461060b90612256565b80156106585780601f1061062d57610100808354040283529160200191610658565b820191906000526020600020905b81548152906001019060200180831161063b57829003601f168201915b505050505081565b60046020528060005260406000206000915054906101000a900473ffffffffffffffffffffffffffffffffffffffff1681565b60006003600083815260200190815260200160002060009054906101000a900473ffffffffffffffffffffffffffffffffffffffff1690508073ffffffffffffffffffffffffffffffffffffffff163373ffffffffffffffffffffffffffffffffffffffff16148061078b5750600560008273ffffffffffffffffffffffffffffffffffffffff1673ffffffffffffffffffffffffffffffffffffffff16815260200190815260200160002060003373ffffffffffffffffffffffffffffffffffffffff1673ffffffffffffffffffffffffffffffffffffffff16815260200190815260200160002060009054906101000a900460ff165b6107ca576040517f08c379a00000000000000000000000000000000000000000000000000000000081526004016107c1906122d4565b60405180910390fd5b826004600084815260200190815260200160002060006101000a81548173ffffffffffffffffffffffffffffffffffffffff021916908373ffffffffffffffffffffffffffffffffffffffff160217905550818373ffffffffffffffffffffffffffffffffffffffff168273ffffffffffffffffffffffffffffffffffffffff167f8c5be1e5ebec7d5bd14f71427d1e84f3dd0314c0f7b2291e5b200ac8c7c3b92560405160405180910390a4505050565b6003600082815260200190815260200160002060009054906101000a900473ffffffffffffffffffffffffffffffffffffffff1673ffffffffffffffffffffffffffffffffffffffff168373ffffffffffffffffffffffffffffffffffffffff161461091d576040517f08c379a000000000000000000000000000000000000000000000000000000000815260040161091490612340565b60405180910390fd5b600073ffffffffffffffffffffffffffffffffffffffff168273ffffffffffffffffffffffffffffffffffffffff16141561098d576040517f08c379a0000000000000000000000000000000000000000000000000000000008152600401610984906123ac565b60405180910390fd5b8273ffffffffffffffffffffffffffffffffffffffff163373ffffffffffffffffffffffffffffffffffffffff161480610a2557506004600082815260200190815260200160002060009054906101000a900473ffffffffffffffffffffffffffffffffffffffff1673ffffffffffffffffffffffffffffffffffffffff163373ffffffffffffffffffffffffffffffffffffffff16145b80610ab65750600560008473ffffffffffffffffffffffffffffffffffffffff1673ffffffffffffffffffffffffffffffffffffffff16815260200190815260200160002060003373ffffffffffffffffffffffffffffffffffffffff1673ffffffffffffffffffffffffffffffffffffffff16815260200190815260200160002060009054906101000a900460ff165b610af5576040517f08c379a0000000000000000000000000000000000000000000000000000000008152600401610aec906122d4565b60405180910390fd5b600260008473ffffffffffffffffffffffffffffffffffffffff1673ffffffffffffffffffffffffffffffffffffffff1681526020019081526020016000206000815480929190600190039190505550600260008373ffffffffffffffffffffffffffffffffffffffff1673ffffffffffffffffffffffffffffffffffffffff16815260200190815260200160002060008154809291906001019190505550816003600083815260200190815260200160002060006101000a81548173ffffffffffffffffffffffffffffffffffffffff021916908373ffffffffffffffffffffffffffffffffffffffff1602179055506004600082815260200190815260200160002060006101000a81549073ffffffffffffffffffffffffffffffffffffffff0219169055808273ffffffffffffffffffffffffffffffffffffffff168473ffffffffffffffffffffffffffffffffffffffff167fddf252ad1be2c89b69c2b068fc378daa952ba7f163c4a11628f55a4df523b3ef60405160405180910390a4505050565b606481565b610c8c83838361087c565b60008273ffffffffffffffffffffffffffffffffffffffff163b1480610d75575063150b7a0260e01b7bffffffffffffffffffffffffffffffffffffffffffffffffffffffff19168273ffffffffffffffffffffffffffffffffffffffff1663150b7a023386856040518463ffffffff1660e01b8152600401610d1193929190612403565b6020604051808303816000875af1158015610d30573d6000803e3d6000fd5b505050506040513d601f19601f82011682018060405250810190610d549190612462565b7bffffffffffffffffffffffffffffffffffffffffffffffffffffffff1916145b610db4576040517f08c379a0000000000000000000000000000000000000000000000000000000008152600401610dab906124db565b60405180910390fd5b505050565b60036020528060005260406000206000915054906101000a900473ffffffffffffffffffffffffffffffffffffffff1681565b60026020528060005260406000206000915090505481565b610e0c611680565b73ffffffffffffffffffffffffffffffffffffffff16610e2a61115a565b73ffffffffffffffffffffffffffffffffffffffff1614610e80576040517f08c379a0000000000000000000000000000000000000000000000000000000008152600401610e7790612547565b60405180910390fd5b610e8a6000611688565b565b600067011c37937e0800003414610ed8576040517f08c379a0000000000000000000000000000000000000000000000000000000008152600401610ecf906125b3565b60405180910390fd5b6000600760008154610ee990612602565b91905081905590506064811115610f35576040517f08c379a0000000000000000000000000000000000000000000000000000000008152600401610f2c90612697565b60405180910390fd5b610f3f838261174e565b826009600083815260200190815260200160002060006101000a81548173ffffffffffffffffffffffffffffffffffffffff021916908373ffffffffffffffffffffffffffffffffffffffff16021790555080915050919050565b610fa2611680565b73ffffffffffffffffffffffffffffffffffffffff16610fc061115a565b73ffffffffffffffffffffffffffffffffffffffff1614611016576040517f08c379a000000000000000000000000000000000000000000000000000000000815260040161100d90612547565b60405180910390fd5b600047905060008273ffffffffffffffffffffffffffffffffffffffff1682604051611041906126e5565b60006040518083038185875af1925050503d806000811461107e576040519150601f19603f3d011682016040523d82523d6000602084013e611083565b606091505b50509050806110c7576040517f08c379a00000000000000000000000000000000000000000000000000000000081526004016110be90612746565b60405180910390fd5b505050565b600880546110d990612256565b80601f016020809104026020016040519081016040528092919081815260200182805461110590612256565b80156111525780601f1061112757610100808354040283529160200191611152565b820191906000526020600020905b81548152906001019060200180831161113557829003601f168201915b505050505081565b6000600660009054906101000a900473ffffffffffffffffffffffffffffffffffffffff16905090565b6001805461119190612256565b80601f01602080910402602001604051908101604052809291908181526020018280546111bd90612256565b801561120a5780601f106111df5761010080835404028352916020019161120a565b820191906000526020600020905b8154815290600101906020018083116111ed57829003601f168201915b505050505081565b80600560003373ffffffffffffffffffffffffffffffffffffffff1673ffffffffffffffffffffffffffffffffffffffff16815260200190815260200160002060008473ffffffffffffffffffffffffffffffffffffffff1673ffffffffffffffffffffffffffffffffffffffff16815260200190815260200160002060006101000a81548160ff0219169083151502179055508173ffffffffffffffffffffffffffffffffffffffff163373ffffffffffffffffffffffffffffffffffffffff167f17307eab39ab6107e8899845ad3d59bd9653f200f220920489ca2b5937696c31836040516113039190611ce1565b60405180910390a35050565b61131a84848461087c565b60008373ffffffffffffffffffffffffffffffffffffffff163b1480611405575063150b7a0260e01b7bffffffffffffffffffffffffffffffffffffffffffffffffffffffff19168373ffffffffffffffffffffffffffffffffffffffff1663150b7a02338786866040518563ffffffff1660e01b81526004016113a194939291906127aa565b6020604051808303816000875af11580156113c0573d6000803e3d6000fd5b505050506040513d601f19601f820116820180604052508101906113e49190612462565b7bffffffffffffffffffffffffffffffffffffffffffffffffffffffff1916145b611444576040517f08c379a000000000000000000000000000000000000000000000000000000000815260040161143b906124db565b60405180910390fd5b50505050565b67011c37937e08000081565b6060600073ffffffffffffffffffffffffffffffffffffffff166009600084815260200190815260200160002060009054906101000a900473ffffffffffffffffffffffffffffffffffffffff1673ffffffffffffffffffffffffffffffffffffffff1614156114fb576040517f08c379a00000000000000000000000000000000000000000000000000000000081526004016114f290612842565b60405180910390fd5b60006008805461150a90612256565b9050116115265760405180602001604052806000815250611552565b600861153183611885565b604051602001611542929190612932565b6040516020818303038152906040525b9050919050565b60056020528160005260406000206020528060005260406000206000915091509054906101000a900460ff1681565b611590611680565b73ffffffffffffffffffffffffffffffffffffffff166115ae61115a565b73ffffffffffffffffffffffffffffffffffffffff1614611604576040517f08c379a00000000000000000000000000000000000000000000000000000000081526004016115fb90612547565b60405180910390fd5b600073ffffffffffffffffffffffffffffffffffffffff168173ffffffffffffffffffffffffffffffffffffffff161415611674576040517f08c379a000000000000000000000000000000000000000000000000000000000815260040161166b906129c8565b60405180910390fd5b61167d81611688565b50565b600033905090565b6000600660009054906101000a900473ffffffffffffffffffffffffffffffffffffffff16905081600660006101000a81548173ffffffffffffffffffffffffffffffffffffffff021916908373ffffffffffffffffffffffffffffffffffffffff1602179055508173ffffffffffffffffffffffffffffffffffffffff168173ffffffffffffffffffffffffffffffffffffffff167f8be0079c531659141344cd1fd0a4f28419497f9722a3daafe3b4186f6b6457e060405160405180910390a35050565b61175882826119e6565b60008273ffffffffffffffffffffffffffffffffffffffff163b1480611842575063150b7a0260e01b7bffffffffffffffffffffffffffffffffffffffffffffffffffffffff19168273ffffffffffffffffffffffffffffffffffffffff1663150b7a02336000856040518463ffffffff1660e01b81526004016117de93929190612403565b6020604051808303816000875af11580156117fd573d6000803e3d6000fd5b505050506040513d601f19601f820116820180604052508101906118219190612462565b7bffffffffffffffffffffffffffffffffffffffffffffffffffffffff1916145b611881576040517f08c379a0000000000000000000000000000000000000000000000000000000008152600401611878906124db565b60405180910390fd5b5050565b606060008214156118cd576040518060400160405280600181526020017f300000000000000000000000000000000000000000000000000000000000000081525090506119e1565b600082905060005b600082146118ff5780806118e890612602565b915050600a826118f89190612a17565b91506118d5565b60008167ffffffffffffffff81111561191b5761191a612039565b5b6040519080825280601f01601f19166020018201604052801561194d5781602001600182028036833780820191505090505b5090505b600085146119da576001826119669190612a48565b9150600a856119759190612a7c565b60306119819190612aad565b60f81b81838151811061199757611996612b03565b5b60200101907effffffffffffffffffffffffffffffffffffffffffffffffffffffffffffff1916908160001a905350600a856119d39190612a17565b9450611951565b8093505050505b919050565b600073ffffffffffffffffffffffffffffffffffffffff168273ffffffffffffffffffffffffffffffffffffffff161415611a56576040517f08c379a0000000000000000000000000000000000000000000000000000000008152600401611a4d906123ac565b60405180910390fd5b600073ffffffffffffffffffffffffffffffffffffffff166003600083815260200190815260200160002060009054906101000a900473ffffffffffffffffffffffffffffffffffffffff1673ffffffffffffffffffffffffffffffffffffffff1614611af8576040517f08c379a0000000000000000000000000000000000000000000000000000000008152600401611aef90612b7e565b60405180910390fd5b600260008373ffffffffffffffffffffffffffffffffffffffff1673ffffffffffffffffffffffffffffffffffffffff16815260200190815260200160002060008154809291906001019190505550816003600083815260200190815260200160002060006101000a81548173ffffffffffffffffffffffffffffffffffffffff021916908373ffffffffffffffffffffffffffffffffffffffff160217905550808273ffffffffffffffffffffffffffffffffffffffff16600073ffffffffffffffffffffffffffffffffffffffff167fddf252ad1be2c89b69c2b068fc378daa952ba7f163c4a11628f55a4df523b3ef60405160405180910390a45050565b6000819050919050565b611c0c81611bf9565b82525050565b6000602082019050611c276000830184611c03565b92915050565b6000604051905090565b600080fd5b600080fd5b60007fffffffff0000000000000000000000000000000000000000000000000000000082169050919050565b611c7681611c41565b8114611c8157600080fd5b50565b600081359050611c9381611c6d565b92915050565b600060208284031215611caf57611cae611c37565b5b6000611cbd84828501611c84565b91505092915050565b60008115159050919050565b611cdb81611cc6565b82525050565b6000602082019050611cf66000830184611cd2565b92915050565b600081519050919050565b600082825260208201905092915050565b60005b83811015611d36578082015181840152602081019050611d1b565b83811115611d45576000848401525b50505050565b6000601f19601f8301169050919050565b6000611d6782611cfc565b611d718185611d07565b9350611d81818560208601611d18565b611d8a81611d4b565b840191505092915050565b60006020820190508181036000830152611daf8184611d5c565b905092915050565b611dc081611bf9565b8114611dcb57600080fd5b50565b600081359050611ddd81611db7565b92915050565b600060208284031215611df957611df8611c37565b5b6000611e0784828501611dce565b91505092915050565b600073ffffffffffffffffffffffffffffffffffffffff82169050919050565b6000611e3b82611e10565b9050919050565b611e4b81611e30565b82525050565b6000602082019050611e666000830184611e42565b92915050565b611e7581611e30565b8114611e8057600080fd5b50565b600081359050611e9281611e6c565b92915050565b60008060408385031215611eaf57611eae611c37565b5b6000611ebd85828601611e83565b9250506020611ece85828601611dce565b9150509250929050565b600080600060608486031215611ef157611ef0611c37565b5b6000611eff86828701611e83565b9350506020611f1086828701611e83565b9250506040611f2186828701611dce565b9150509250925092565b600060208284031215611f4157611f40611c37565b5b6000611f4f84828501611e83565b91505092915050565b6000611f6382611e10565b9050919050565b611f7381611f58565b8114611f7e57600080fd5b50565b600081359050611f9081611f6a565b92915050565b600060208284031215611fac57611fab611c37565b5b6000611fba84828501611f81565b91505092915050565b611fcc81611cc6565b8114611fd757600080fd5b50565b600081359050611fe981611fc3565b92915050565b6000806040838503121561200657612005611c37565b5b600061201485828601611e83565b925050602061202585828601611fda565b9150509250929050565b600080fd5b600080fd5b7f4e487b7100000000000000000000000000000000000000000000000000000000600052604160045260246000fd5b61207182611d4b565b810181811067ffffffffffffffff821117156120905761208f612039565b5b80604052505050565b60006120a3611c2d565b90506120af8282612068565b919050565b600067ffffffffffffffff8211156120cf576120ce612039565b5b6120d882611d4b565b9050602081019050919050565b82818337600083830152505050565b6000612107612102846120b4565b612099565b90508281526020810184848401111561212357612122612034565b5b61212e8482856120e5565b509392505050565b600082601f83011261214b5761214a61202f565b5b813561215b8482602086016120f4565b91505092915050565b6000806000806080858703121561217e5761217d611c37565b5b600061218c87828801611e83565b945050602061219d87828801611e83565b93505060406121ae87828801611dce565b925050606085013567ffffffffffffffff8111156121cf576121ce611c3c565b5b6121db87828801612136565b91505092959194509250565b600080604083850312156121fe576121fd611c37565b5b600061220c85828601611e83565b925050602061221d85828601611e83565b9150509250929050565b7f4e487b7100000000000000000000000000000000000000000000000000000000600052602260045260246000fd5b6000600282049050600182168061226e57607f821691505b6020821081141561228257612281612227565b5b50919050565b7f4e4f545f415554484f52495a4544000000000000000000000000000000000000600082015250565b60006122be600e83611d07565b91506122c982612288565b602082019050919050565b600060208201905081810360008301526122ed816122b1565b9050919050565b7f57524f4e475f46524f4d00000000000000000000000000000000000000000000600082015250565b600061232a600a83611d07565b9150612335826122f4565b602082019050919050565b600060208201905081810360008301526123598161231d565b9050919050565b7f494e56414c49445f524543495049454e54000000000000000000000000000000600082015250565b6000612396601183611d07565b91506123a182612360565b602082019050919050565b600060208201905081810360008301526123c581612389565b9050919050565b600082825260208201905092915050565b50565b60006123ed6000836123cc565b91506123f8826123dd565b600082019050919050565b60006080820190506124186000830186611e42565b6124256020830185611e42565b6124326040830184611c03565b8181036060830152612443816123e0565b9050949350505050565b60008151905061245c81611c6d565b92915050565b60006020828403121561247857612477611c37565b5b60006124868482850161244d565b91505092915050565b7f554e534146455f524543495049454e5400000000000000000000000000000000600082015250565b60006124c5601083611d07565b91506124d08261248f565b602082019050919050565b600060208201905081810360008301526124f4816124b8565b9050919050565b7f4f776e61626c653a2063616c6c6572206973206e6f7420746865206f776e6572600082015250565b6000612531602083611d07565b915061253c826124fb565b602082019050919050565b6000602082019050818103600083015261256081612524565b9050919050565b7f6d73672e76616c7565203c204d494e545f505249434500000000000000000000600082015250565b600061259d601683611d07565b91506125a882612567565b602082019050919050565b600060208201905081810360008301526125cc81612590565b9050919050565b7f4e487b7100000000000000000000000000000000000000000000000000000000600052601160045260246000fd5b600061260d82611bf9565b91507fffffffffffffffffffffffffffffffffffffffffffffffffffffffffffffffff8214156126405761263f6125d3565b5b600182019050919050565b7f736f6c64206f7574000000000000000000000000000000000000000000000000600082015250565b6000612681600883611d07565b915061268c8261264b565b602082019050919050565b600060208201905081810360008301526126b081612674565b9050919050565b600081905092915050565b60006126cf6000836126b7565b91506126da826123dd565b600082019050919050565b60006126f0826126c2565b9150819050919050565b7f5472616e73616374696f6e206661696c65640000000000000000000000000000600082015250565b6000612730601283611d07565b915061273b826126fa565b602082019050919050565b6000602082019050818103600083015261275f81612723565b9050919050565b600081519050919050565b600061277c82612766565b61278681856123cc565b9350612796818560208601611d18565b61279f81611d4b565b840191505092915050565b60006080820190506127bf6000830187611e42565b6127cc6020830186611e42565b6127d96040830185611c03565b81810360608301526127eb8184612771565b905095945050505050565b7f6e6f6e206578697374656e740000000000000000000000000000000000000000600082015250565b600061282c600c83611d07565b9150612837826127f6565b602082019050919050565b6000602082019050818103600083015261285b8161281f565b9050919050565b600081905092915050565b60008190508160005260206000209050919050565b6000815461288f81612256565b6128998186612862565b945060018216600081146128b457600181146128c5576128f8565b60ff198316865281860193506128f8565b6128ce8561286d565b60005b838110156128f0578154818901526001820191506020810190506128d1565b838801955050505b50505092915050565b600061290c82611cfc565b6129168185612862565b9350612926818560208601611d18565b80840191505092915050565b600061293e8285612882565b915061294a8284612901565b91508190509392505050565b7f4f776e61626c653a206e6577206f776e657220697320746865207a65726f206160008201527f6464726573730000000000000000000000000000000000000000000000000000602082015250565b60006129b2602683611d07565b91506129bd82612956565b604082019050919050565b600060208201905081810360008301526129e1816129a5565b9050919050565b7f4e487b7100000000000000000000000000000000000000000000000000000000600052601260045260246000fd5b6000612a2282611bf9565b9150612a2d83611bf9565b925082612a3d57612a3c6129e8565b5b828204905092915050565b6000612a5382611bf9565b9150612a5e83611bf9565b925082821015612a7157612a706125d3565b5b828203905092915050565b6000612a8782611bf9565b9150612a9283611bf9565b925082612aa257612aa16129e8565b5b828206905092915050565b6000612ab882611bf9565b9150612ac383611bf9565b9250827fffffffffffffffffffffffffffffffffffffffffffffffffffffffffffffffff03821115612af857612af76125d3565b5b828201905092915050565b7f4e487b7100000000000000000000000000000000000000000000000000000000600052603260045260246000fd5b7f414c52454144595f4d494e544544000000000000000000000000000000000000600082015250565b6000612b68600e83611d07565b9150612b7382612b32565b602082019050919050565b60006020820190508181036000830152612b9781612b5b565b905091905056fea26469706673582212201048ddd14e5a1439704a0b4182bce1477ce62b049961886fd53e77f458c48a7664736f6c634300080a0033",
  "linkReferences": {},
  "deployedLinkReferences": {}
}