{
  "abi": [
    {
      "inputs": [
        {
          "internalType": "string",
          "name": "_name",
          "type": "string"
        },
        {
          "internalType": "string",
          "name": "_symbol",
          "type": "string"
        }
      ],
      "stateMutability": "nonpayable",
      "type": "constructor"
    },
    {
      "anonymous": false,
      "inputs": [
        {
          "indexed": true,
          "internalType": "address",
          "name": "owner",
          "type": "address"
        },
        {
          "indexed": true,
          "internalType": "address",
          "name": "spender",
          "type": "address"
        },
        {
          "indexed": true,
          "internalType": "uint256",
          "name": "id",
          "type": "uint256"
        }
      ],
      "name": "Approval",
      "type": "event"
    },
    {
      "anonymous": false,
      "inputs": [
        {
          "indexed": true,
          "internalType": "address",
          "name": "owner",
          "type": "address"
        },
        {
          "indexed": true,
          "internalType": "address",
          "name": "operator",
          "type": "address"
        },
        {
          "indexed": false,
          "internalType": "bool",
          "name": "approved",
          "type": "bool"
        }
      ],
      "name": "ApprovalForAll",
      "type": "event"
    },
    {
      "anonymous": false,
      "inputs": [
        {
          "indexed": true,
          "internalType": "address",
          "name": "from",
          "type": "address"
        },
        {
          "indexed": true,
          "internalType": "address",
          "name": "to",
          "type": "address"
        },
        {
          "indexed": true,
          "internalType": "uint256",
          "name": "id",
          "type": "uint256"
        }
      ],
      "name": "Transfer",
      "type": "event"
    },
    {
      "inputs": [],
      "name": "MAX_SUPPLY",
      "outputs": [
        {
          "internalType": "uint256",
          "name": "",
          "type": "uint256"
        }
      ],
      "stateMutability": "view",
      "type": "function"
    },
    {
      "inputs": [],
      "name": "MINT_PRICE",
      "outputs": [
        {
          "internalType": "uint256",
          "name": "",
          "type": "uint256"
        }
      ],
      "stateMutability": "view",
      "type": "function"
    },
    {
      "inputs": [
        {
          "internalType": "address",
          "name": "spender",
          "type": "address"
        },
        {
          "internalType": "uint256",
          "name": "id",
          "type": "uint256"
        }
      ],
      "name": "approve",
      "outputs": [],
      "stateMutability": "nonpayable",
      "type": "function"
    },
    {
      "inputs": [
        {
          "internalType": "address",
          "name": "",
          "type": "address"
        }
      ],
      "name": "balanceOf",
      "outputs": [
        {
          "internalType": "uint256",
          "name": "",
          "type": "uint256"
        }
      ],
      "stateMutability": "view",
      "type": "function"
    },
    {
      "inputs": [],
      "name": "currentTokenId",
      "outputs": [
        {
          "internalType": "uint256",
          "name": "",
          "type": "uint256"
        }
      ],
      "stateMutability": "view",
      "type": "function"
    },
    {
      "inputs": [
        {
          "internalType": "uint256",
          "name": "",
          "type": "uint256"
        }
      ],
      "name": "getApproved",
      "outputs": [
        {
          "internalType": "address",
          "name": "",
          "type": "address"
        }
      ],
      "stateMutability": "view",
      "type": "function"
    },
    {
      "inputs": [
        {
          "internalType": "address",
          "name": "",
          "type": "address"
        },
        {
          "internalType": "address",
          "name": "",
          "type": "address"
        }
      ],
      "name": "isApprovedForAll",
      "outputs": [
        {
          "internalType": "bool",
          "name": "",
          "type": "bool"
        }
      ],
      "stateMutability": "view",
      "type": "function"
    },
    {
      "inputs": [
        {
          "internalType": "address",
          "name": "recipient",
          "type": "address"
        }
      ],
      "name": "mintTo",
      "outputs": [
        {
          "internalType": "uint256",
          "name": "",
          "type": "uint256"
        }
      ],
      "stateMutability": "payable",
      "type": "function"
    },
    {
      "inputs": [],
      "name": "name",
      "outputs": [
        {
          "internalType": "string",
          "name": "",
          "type": "string"
        }
      ],
      "stateMutability": "view",
      "type": "function"
    },
    {
      "inputs": [
        {
          "internalType": "uint256",
          "name": "",
          "type": "uint256"
        }
      ],
      "name": "ownerOf",
      "outputs": [
        {
          "internalType": "address",
          "name": "",
          "type": "address"
        }
      ],
      "stateMutability": "view",
      "type": "function"
    },
    {
      "inputs": [
        {
          "internalType": "address",
          "name": "from",
          "type": "address"
        },
        {
          "internalType": "address",
          "name": "to",
          "type": "address"
        },
        {
          "internalType": "uint256",
          "name": "id",
          "type": "uint256"
        }
      ],
      "name": "safeTransferFrom",
      "outputs": [],
      "stateMutability": "nonpayable",
      "type": "function"
    },
    {
      "inputs": [
        {
          "internalType": "address",
          "name": "from",
          "type": "address"
        },
        {
          "internalType": "address",
          "name": "to",
          "type": "address"
        },
        {
          "internalType": "uint256",
          "name": "id",
          "type": "uint256"
        },
        {
          "internalType": "bytes",
          "name": "data",
          "type": "bytes"
        }
      ],
      "name": "safeTransferFrom",
      "outputs": [],
      "stateMutability": "nonpayable",
      "type": "function"
    },
    {
      "inputs": [
        {
          "internalType": "address",
          "name": "operator",
          "type": "address"
        },
        {
          "internalType": "bool",
          "name": "approved",
          "type": "bool"
        }
      ],
      "name": "setApprovalForAll",
      "outputs": [],
      "stateMutability": "nonpayable",
      "type": "function"
    },
    {
      "inputs": [
        {
          "internalType": "bytes4",
          "name": "interfaceId",
          "type": "bytes4"
        }
      ],
      "name": "supportsInterface",
      "outputs": [
        {
          "internalType": "bool",
          "name": "",
          "type": "bool"
        }
      ],
      "stateMutability": "view",
      "type": "function"
    },
    {
      "inputs": [],
      "name": "symbol",
      "outputs": [
        {
          "internalType": "string",
          "name": "",
          "type": "string"
        }
      ],
      "stateMutability": "view",
      "type": "function"
    },
    {
      "inputs": [
        {
          "internalType": "uint256",
          "name": "tokenId",
          "type": "uint256"
        }
      ],
      "name": "tokenURI",
      "outputs": [
        {
          "internalType": "string",
          "name": "",
          "type": "string"
        }
      ],
      "stateMutability": "view",
      "type": "function"
    },
    {
      "inputs": [
        {
          "internalType": "address",
          "name": "from",
          "type": "address"
        },
        {
          "internalType": "address",
          "name": "to",
          "type": "address"
        },
        {
          "internalType": "uint256",
          "name": "id",
          "type": "uint256"
        }
      ],
      "name": "transferFrom",
      "outputs": [],
      "stateMutability": "nonpayable",
      "type": "function"
    }
  ],
  "bytecode": {
    "object": "0x60806040523480156200001157600080fd5b5060405162001218380380620012188339810160408190526200003491620001e1565b8151829082906200004d9060009060208501906200006e565b508051620000639060019060208401906200006e565b505050505062000288565b8280546200007c906200024b565b90600052602060002090601f016020900481019282620000a05760008555620000eb565b82601f10620000bb57805160ff1916838001178555620000eb565b82800160010185558215620000eb579182015b82811115620000eb578251825591602001919060010190620000ce565b50620000f9929150620000fd565b5090565b5b80821115620000f95760008155600101620000fe565b634e487b7160e01b600052604160045260246000fd5b600082601f8301126200013c57600080fd5b81516001600160401b038082111562000159576200015962000114565b604051601f8301601f19908116603f0116810190828211818310171562000184576200018462000114565b81604052838152602092508683858801011115620001a157600080fd5b600091505b83821015620001c55785820183015181830184015290820190620001a6565b83821115620001d75760008385830101525b9695505050505050565b60008060408385031215620001f557600080fd5b82516001600160401b03808211156200020d57600080fd5b6200021b868387016200012a565b935060208501519150808211156200023257600080fd5b5062000241858286016200012a565b9150509250929050565b600181811c908216806200026057607f821691505b602082108114156200028257634e487b7160e01b600052602260045260246000fd5b50919050565b610f8080620002986000396000f3fe6080604052600436106100fd5760003560e01c80636352211e11610095578063a22cb46511610064578063a22cb465146102cd578063b88d4fde146102ed578063c002d23d1461030d578063c87b56dd14610329578063e985e9c51461034a57600080fd5b80636352211e1461024257806370a0823114610278578063755edd17146102a557806395d89b41146102b857600080fd5b8063095ea7b3116100d1578063095ea7b3146101cb57806323b872dd146101ed57806332cb6b0c1461020d57806342842e0e1461022257600080fd5b80629a9b7b1461010257806301ffc9a71461012b57806306fdde031461015b578063081812fc1461017d575b600080fd5b34801561010e57600080fd5b5061011860065481565b6040519081526020015b60405180910390f35b34801561013757600080fd5b5061014b610146366004610bc7565b610385565b6040519015158152602001610122565b34801561016757600080fd5b506101706103d7565b6040516101229190610c38565b34801561018957600080fd5b506101b3610198366004610c4b565b6004602052600090815260409020546001600160a01b031681565b6040516001600160a01b039091168152602001610122565b3480156101d757600080fd5b506101eb6101e6366004610c80565b610465565b005b3480156101f957600080fd5b506101eb610208366004610caa565b61054c565b34801561021957600080fd5b50610118606481565b34801561022e57600080fd5b506101eb61023d366004610caa565b610713565b34801561024e57600080fd5b506101b361025d366004610c4b565b6003602052600090815260409020546001600160a01b031681565b34801561028457600080fd5b50610118610293366004610ce6565b60026020526000908152604090205481565b6101186102b3366004610ce6565b6107e8565b3480156102c457600080fd5b50610170610898565b3480156102d957600080fd5b506101eb6102e8366004610d01565b6108a5565b3480156102f957600080fd5b506101eb610308366004610d53565b610911565b34801561031957600080fd5b5061011867011c37937e08000081565b34801561033557600080fd5b50610170610344366004610c4b565b50606090565b34801561035657600080fd5b5061014b610365366004610e2f565b600560209081526000928352604080842090915290825290205460ff1681565b60006301ffc9a760e01b6001600160e01b0319831614806103b657506380ac58cd60e01b6001600160e01b03198316145b806103d15750635b5e139f60e01b6001600160e01b03198316145b92915050565b600080546103e490610e62565b80601f016020809104026020016040519081016040528092919081815260200182805461041090610e62565b801561045d5780601f106104325761010080835404028352916020019161045d565b820191906000526020600020905b81548152906001019060200180831161044057829003601f168201915b505050505081565b6000818152600360205260409020546001600160a01b0316338114806104ae57506001600160a01b038116600090815260056020908152604080832033845290915290205460ff165b6104f05760405162461bcd60e51b815260206004820152600e60248201526d1393d517d055551213d49256915160921b60448201526064015b60405180910390fd5b60008281526004602052604080822080546001600160a01b0319166001600160a01b0387811691821790925591518593918516917f8c5be1e5ebec7d5bd14f71427d1e84f3dd0314c0f7b2291e5b200ac8c7c3b92591a4505050565b6000818152600360205260409020546001600160a01b038481169116146105a25760405162461bcd60e51b815260206004820152600a60248201526957524f4e475f46524f4d60b01b60448201526064016104e7565b6001600160a01b0382166105ec5760405162461bcd60e51b81526020600482015260116024820152701253959053125117d49150d25412515395607a1b60448201526064016104e7565b336001600160a01b038416148061062657506001600160a01b038316600090815260056020908152604080832033845290915290205460ff165b8061064757506000818152600460205260409020546001600160a01b031633145b6106845760405162461bcd60e51b815260206004820152600e60248201526d1393d517d055551213d49256915160921b60448201526064016104e7565b6001600160a01b0380841660008181526002602090815260408083208054600019019055938616808352848320805460010190558583526003825284832080546001600160a01b03199081168317909155600490925284832080549092169091559251849392917fddf252ad1be2c89b69c2b068fc378daa952ba7f163c4a11628f55a4df523b3ef91a4505050565b61071e83838361054c565b6001600160a01b0382163b15806107c75750604051630a85bd0160e11b8082523360048301526001600160a01b03858116602484015260448301849052608060648401526000608484015290919084169063150b7a029060a4016020604051808303816000875af1158015610797573d6000803e3d6000fd5b505050506040513d601f19601f820116820180604052508101906107bb9190610e9d565b6001600160e01b031916145b6107e35760405162461bcd60e51b81526004016104e790610eba565b505050565b600067011c37937e080000341461083a5760405162461bcd60e51b81526020600482015260166024820152756d73672e76616c7565203c204d494e545f505249434560501b60448201526064016104e7565b600060066000815461084b90610ee4565b91829055509050606481111561088e5760405162461bcd60e51b81526020600482015260086024820152671cdbdb19081bdd5d60c21b60448201526064016104e7565b6103d183826109d3565b600180546103e490610e62565b3360008181526005602090815260408083206001600160a01b03871680855290835292819020805460ff191686151590811790915590519081529192917f17307eab39ab6107e8899845ad3d59bd9653f200f220920489ca2b5937696c31910160405180910390a35050565b61091c84848461054c565b6001600160a01b0383163b15806109b15750604051630a85bd0160e11b808252906001600160a01b0385169063150b7a0290610962903390899088908890600401610f0d565b6020604051808303816000875af1158015610981573d6000803e3d6000fd5b505050506040513d601f19601f820116820180604052508101906109a59190610e9d565b6001600160e01b031916145b6109cd5760405162461bcd60e51b81526004016104e790610eba565b50505050565b6109dd8282610aa3565b6001600160a01b0382163b1580610a835750604051630a85bd0160e11b80825233600483015260006024830181905260448301849052608060648401526084830152906001600160a01b0384169063150b7a029060a4016020604051808303816000875af1158015610a53573d6000803e3d6000fd5b505050506040513d601f19601f82011682018060405250810190610a779190610e9d565b6001600160e01b031916145b610a9f5760405162461bcd60e51b81526004016104e790610eba565b5050565b6001600160a01b038216610aed5760405162461bcd60e51b81526020600482015260116024820152701253959053125117d49150d25412515395607a1b60448201526064016104e7565b6000818152600360205260409020546001600160a01b031615610b435760405162461bcd60e51b815260206004820152600e60248201526d1053149150511657d3525395115160921b60448201526064016104e7565b6001600160a01b038216600081815260026020908152604080832080546001019055848352600390915280822080546001600160a01b0319168417905551839291907fddf252ad1be2c89b69c2b068fc378daa952ba7f163c4a11628f55a4df523b3ef908290a45050565b6001600160e01b031981168114610bc457600080fd5b50565b600060208284031215610bd957600080fd5b8135610be481610bae565b9392505050565b6000815180845260005b81811015610c1157602081850181015186830182015201610bf5565b81811115610c23576000602083870101525b50601f01601f19169290920160200192915050565b602081526000610be46020830184610beb565b600060208284031215610c5d57600080fd5b5035919050565b80356001600160a01b0381168114610c7b57600080fd5b919050565b60008060408385031215610c9357600080fd5b610c9c83610c64565b946020939093013593505050565b600080600060608486031215610cbf57600080fd5b610cc884610c64565b9250610cd660208501610c64565b9150604084013590509250925092565b600060208284031215610cf857600080fd5b610be482610c64565b60008060408385031215610d1457600080fd5b610d1d83610c64565b915060208301358015158114610d3257600080fd5b809150509250929050565b634e487b7160e01b600052604160045260246000fd5b60008060008060808587031215610d6957600080fd5b610d7285610c64565b9350610d8060208601610c64565b925060408501359150606085013567ffffffffffffffff80821115610da457600080fd5b818701915087601f830112610db857600080fd5b813581811115610dca57610dca610d3d565b604051601f8201601f19908116603f01168101908382118183101715610df257610df2610d3d565b816040528281528a6020848701011115610e0b57600080fd5b82602086016020830137600060208483010152809550505050505092959194509250565b60008060408385031215610e4257600080fd5b610e4b83610c64565b9150610e5960208401610c64565b90509250929050565b600181811c90821680610e7657607f821691505b60208210811415610e9757634e487b7160e01b600052602260045260246000fd5b50919050565b600060208284031215610eaf57600080fd5b8151610be481610bae565b60208082526010908201526f155394d0519157d49150d2541251539560821b604082015260600190565b6000600019821415610f0657634e487b7160e01b600052601160045260246000fd5b5060010190565b6001600160a01b0385811682528416602082015260408101839052608060608201819052600090610f4090830184610beb565b969550505050505056fea264697066735822122096703cad34a0242a42361002733b1c1fa6b9e8ac747747450d3edd147345e4ff64736f6c634300080a0033",
    "linkReferences": {}
  }
}